{"abi":[{"type":"constructor","inputs":[],"stateMutability":"nonpayable"},{"type":"function","name":"AGENT_NAME","inputs":[],"outputs":[{"name":"","type":"string","internalType":"string"}],"stateMutability":"view"},{"type":"function","name":"AGENT_SYMBOL","inputs":[],"outputs":[{"name":"","type":"string","internalType":"string"}],"stateMutability":"view"},{"type":"function","name":"AGENT_TOKEN_ID","inputs":[],"outputs":[{"name":"","type":"uint256","internalType":"uint256"}],"stateMutability":"view"},{"type":"function","name":"CHAIN_ID","inputs":[],"outputs":[{"name":"","type":"uint256","internalType":"uint256"}],"stateMutability":"view"},{"type":"function","name":"agentDecideOnRebalance","inputs":[{"name":"positionId","type":"uint256","internalType":"uint256"},{"name":"volatilityPercent","type":"uint256","internalType":"uint256"}],"outputs":[{"name":"shouldRebalance","type":"bool","internalType":"bool"}],"stateMutability":"nonpayable"},{"type":"function","name":"allowedAutonomousFunctions","inputs":[{"name":"","type":"bytes4","internalType":"bytes4"}],"outputs":[{"name":"","type":"bool","internalType":"bool"}],"stateMutability":"view"},{"type":"function","name":"anchorMemoryRoot","inputs":[{"name":"memoryRoot","type":"bytes32","internalType":"bytes32"},{"name":"storageProof","type":"bytes32","internalType":"bytes32"}],"outputs":[],"stateMutability":"nonpayable"},{"type":"function","name":"approve","inputs":[{"name":"to","type":"address","internalType":"address"},{"name":"tokenId","type":"uint256","internalType":"uint256"}],"outputs":[],"stateMutability":"nonpayable"},{"type":"function","name":"balanceOf","inputs":[{"name":"owner","type":"address","internalType":"address"}],"outputs":[{"name":"","type":"uint256","internalType":"uint256"}],"stateMutability":"view"},{"type":"function","name":"collectFees","inputs":[{"name":"tokenId","type":"uint256","internalType":"uint256"},{"name":"recipient","type":"address","internalType":"address"},{"name":"amount0Max","type":"uint128","internalType":"uint128"},{"name":"amount1Max","type":"uint128","internalType":"uint128"}],"outputs":[{"name":"amount0","type":"uint256","internalType":"uint256"},{"name":"amount1","type":"uint256","internalType":"uint256"}],"stateMutability":"nonpayable"},{"type":"function","name":"completeInference","inputs":[{"name":"requestId","type":"bytes32","internalType":"bytes32"},{"name":"resultRoot","type":"bytes32","internalType":"bytes32"},{"name":"computeProof","type":"bytes32","internalType":"bytes32"}],"outputs":[],"stateMutability":"nonpayable"},{"type":"function","name":"currentAttestationRoot","inputs":[],"outputs":[{"name":"","type":"bytes32","internalType":"bytes32"}],"stateMutability":"view"},{"type":"function","name":"currentMemoryRoot","inputs":[],"outputs":[{"name":"","type":"bytes32","internalType":"bytes32"}],"stateMutability":"view"},{"type":"function","name":"executeAutonomousAction","inputs":[{"name":"functionSig","type":"bytes4","internalType":"bytes4"},{"name":"data","type":"bytes","internalType":"bytes"}],"outputs":[{"name":"","type":"bool","internalType":"bool"}],"stateMutability":"nonpayable"},{"type":"function","name":"genesisBlock","inputs":[],"outputs":[{"name":"","type":"uint256","internalType":"uint256"}],"stateMutability":"view"},{"type":"function","name":"genesisInitialized","inputs":[],"outputs":[{"name":"","type":"bool","internalType":"bool"}],"stateMutability":"view"},{"type":"function","name":"getApproved","inputs":[{"name":"tokenId","type":"uint256","internalType":"uint256"}],"outputs":[{"name":"","type":"address","internalType":"address"}],"stateMutability":"view"},{"type":"function","name":"initializeGenesis","inputs":[],"outputs":[],"stateMutability":"nonpayable"},{"type":"function","name":"isApprovedForAll","inputs":[{"name":"owner","type":"address","internalType":"address"},{"name":"operator","type":"address","internalType":"address"}],"outputs":[{"name":"","type":"bool","internalType":"bool"}],"stateMutability":"view"},{"type":"function","name":"lastAnchoredBlock","inputs":[],"outputs":[{"name":"","type":"uint256","internalType":"uint256"}],"stateMutability":"view"},{"type":"function","name":"lastAttestationTime","inputs":[],"outputs":[{"name":"","type":"uint64","internalType":"uint64"}],"stateMutability":"view"},{"type":"function","name":"logAttestationRoot","inputs":[{"name":"attestationRoot","type":"bytes32","internalType":"bytes32"},{"name":"computeProof","type":"bytes32","internalType":"bytes32"}],"outputs":[],"stateMutability":"nonpayable"},{"type":"function","name":"mintPosition","inputs":[{"name":"token0","type":"address","internalType":"address"},{"name":"token1","type":"address","internalType":"address"},{"name":"tickLower","type":"int24","internalType":"int24"},{"name":"tickUpper","type":"int24","internalType":"int24"},{"name":"liquidity","type":"uint128","internalType":"uint128"},{"name":"amount0Min","type":"uint256","internalType":"uint256"},{"name":"amount1Min","type":"uint256","internalType":"uint256"},{"name":"recipient","type":"address","internalType":"address"},{"name":"deadline","type":"uint256","internalType":"uint256"}],"outputs":[{"name":"tokenId","type":"uint256","internalType":"uint256"},{"name":"liquidityMinted","type":"uint128","internalType":"uint128"},{"name":"amount0","type":"uint256","internalType":"uint256"},{"name":"amount1","type":"uint256","internalType":"uint256"}],"stateMutability":"nonpayable"},{"type":"function","name":"name","inputs":[],"outputs":[{"name":"","type":"string","internalType":"string"}],"stateMutability":"view"},{"type":"function","name":"owner","inputs":[],"outputs":[{"name":"","type":"address","internalType":"address"}],"stateMutability":"view"},{"type":"function","name":"ownerOf","inputs":[{"name":"tokenId","type":"uint256","internalType":"uint256"}],"outputs":[{"name":"","type":"address","internalType":"address"}],"stateMutability":"view"},{"type":"function","name":"rebalancePosition","inputs":[{"name":"positionId","type":"uint256","internalType":"uint256"},{"name":"newTickLower","type":"int24","internalType":"int24"},{"name":"newTickUpper","type":"int24","internalType":"int24"},{"name":"minLiquidity","type":"uint256","internalType":"uint256"}],"outputs":[{"name":"","type":"bool","internalType":"bool"}],"stateMutability":"nonpayable"},{"type":"function","name":"receiveSealedResult","inputs":[{"name":"requestId","type":"bytes32","internalType":"bytes32"},{"name":"resultRoot","type":"bytes32","internalType":"bytes32"},{"name":"computeProof","type":"bytes32","internalType":"bytes32"}],"outputs":[],"stateMutability":"nonpayable"},{"type":"function","name":"registerSkill","inputs":[{"name":"skillHash","type":"bytes32","internalType":"bytes32"},{"name":"skillURI","type":"string","internalType":"string"},{"name":"permissionLevel","type":"uint256","internalType":"uint256"}],"outputs":[],"stateMutability":"nonpayable"},{"type":"function","name":"renounceOwnership","inputs":[],"outputs":[],"stateMutability":"nonpayable"},{"type":"function","name":"requestSealedInference","inputs":[{"name":"modelHash","type":"bytes32","internalType":"bytes32"},{"name":"inputData","type":"bytes","internalType":"bytes"}],"outputs":[{"name":"requestId","type":"bytes32","internalType":"bytes32"}],"stateMutability":"nonpayable"},{"type":"function","name":"safeTransferFrom","inputs":[{"name":"from","type":"address","internalType":"address"},{"name":"to","type":"address","internalType":"address"},{"name":"tokenId","type":"uint256","internalType":"uint256"}],"outputs":[],"stateMutability":"nonpayable"},{"type":"function","name":"safeTransferFrom","inputs":[{"name":"from","type":"address","internalType":"address"},{"name":"to","type":"address","internalType":"address"},{"name":"tokenId","type":"uint256","internalType":"uint256"},{"name":"data","type":"bytes","internalType":"bytes"}],"outputs":[],"stateMutability":"nonpayable"},{"type":"function","name":"setApprovalForAll","inputs":[{"name":"operator","type":"address","internalType":"address"},{"name":"approved","type":"bool","internalType":"bool"}],"outputs":[],"stateMutability":"nonpayable"},{"type":"function","name":"skills","inputs":[{"name":"","type":"bytes32","internalType":"bytes32"}],"outputs":[{"name":"hash","type":"bytes32","internalType":"bytes32"},{"name":"uri","type":"string","internalType":"string"},{"name":"permissionLevel","type":"uint256","internalType":"uint256"},{"name":"active","type":"bool","internalType":"bool"},{"name":"registeredAt","type":"uint256","internalType":"uint256"}],"stateMutability":"view"},{"type":"function","name":"supportsInterface","inputs":[{"name":"interfaceId","type":"bytes4","internalType":"bytes4"}],"outputs":[{"name":"","type":"bool","internalType":"bool"}],"stateMutability":"view"},{"type":"function","name":"swapExactTokensForTokensV3","inputs":[{"name":"amountIn","type":"uint256","internalType":"uint256"},{"name":"amountOutMin","type":"uint256","internalType":"uint256"},{"name":"path","type":"address[]","internalType":"address[]"},{"name":"to","type":"address","internalType":"address"},{"name":"deadline","type":"uint256","internalType":"uint256"}],"outputs":[{"name":"amounts","type":"uint256[]","internalType":"uint256[]"}],"stateMutability":"nonpayable"},{"type":"function","name":"symbol","inputs":[],"outputs":[{"name":"","type":"string","internalType":"string"}],"stateMutability":"view"},{"type":"function","name":"tokenURI","inputs":[{"name":"tokenId","type":"uint256","internalType":"uint256"}],"outputs":[{"name":"","type":"string","internalType":"string"}],"stateMutability":"view"},{"type":"function","name":"transferFrom","inputs":[{"name":"from","type":"address","internalType":"address"},{"name":"to","type":"address","internalType":"address"},{"name":"tokenId","type":"uint256","internalType":"uint256"}],"outputs":[],"stateMutability":"nonpayable"},{"type":"function","name":"transferOwnership","inputs":[{"name":"newOwner","type":"address","internalType":"address"}],"outputs":[],"stateMutability":"nonpayable"},{"type":"function","name":"verifyAgentState","inputs":[{"name":"stateRoot","type":"bytes32","internalType":"bytes32"},{"name":"proof","type":"bytes32[]","internalType":"bytes32[]"}],"outputs":[{"name":"","type":"bool","internalType":"bool"}],"stateMutability":"view"},{"type":"event","name":"Approval","inputs":[{"name":"owner","type":"address","indexed":true,"internalType":"address"},{"name":"approved","type":"address","indexed":true,"internalType":"address"},{"name":"tokenId","type":"uint256","indexed":true,"internalType":"uint256"}],"anonymous":false},{"type":"event","name":"ApprovalForAll","inputs":[{"name":"owner","type":"address","indexed":true,"internalType":"address"},{"name":"operator","type":"address","indexed":true,"internalType":"address"},{"name":"approved","type":"bool","indexed":false,"internalType":"bool"}],"anonymous":false},{"type":"event","name":"AttestationLogged","inputs":[{"name":"attestationRoot","type":"bytes32","indexed":true,"internalType":"bytes32"},{"name":"computeProof","type":"bytes32","indexed":false,"internalType":"bytes32"},{"name":"timestamp","type":"uint64","indexed":false,"internalType":"uint64"}],"anonymous":false},{"type":"event","name":"AutonomousActionExecuted","inputs":[{"name":"actionId","type":"bytes32","indexed":true,"internalType":"bytes32"},{"name":"caller","type":"address","indexed":false,"internalType":"address"},{"name":"functionSig","type":"bytes4","indexed":false,"internalType":"bytes4"},{"name":"success","type":"bool","indexed":false,"internalType":"bool"}],"anonymous":false},{"type":"event","name":"InferenceCompleted","inputs":[{"name":"requestId","type":"bytes32","indexed":true,"internalType":"bytes32"},{"name":"resultRoot","type":"bytes32","indexed":false,"internalType":"bytes32"},{"name":"computeProof","type":"bytes32","indexed":false,"internalType":"bytes32"},{"name":"timestamp","type":"uint256","indexed":false,"internalType":"uint256"}],"anonymous":false},{"type":"event","name":"MemoryAnchored","inputs":[{"name":"memoryRoot","type":"bytes32","indexed":true,"internalType":"bytes32"},{"name":"blockNumber","type":"uint256","indexed":false,"internalType":"uint256"},{"name":"storageProof","type":"bytes32","indexed":false,"internalType":"bytes32"}],"anonymous":false},{"type":"event","name":"OwnershipTransferred","inputs":[{"name":"previousOwner","type":"address","indexed":true,"internalType":"address"},{"name":"newOwner","type":"address","indexed":true,"internalType":"address"}],"anonymous":false},{"type":"event","name":"RebalanceDecision","inputs":[{"name":"positionId","type":"uint256","indexed":true,"internalType":"uint256"},{"name":"volatilityPercent","type":"uint256","indexed":false,"internalType":"uint256"},{"name":"currentTick","type":"int24","indexed":false,"internalType":"int24"},{"name":"tickWidth","type":"int24","indexed":false,"internalType":"int24"},{"name":"timestamp","type":"uint256","indexed":false,"internalType":"uint256"}],"anonymous":false},{"type":"event","name":"SkillRegistered","inputs":[{"name":"skillHash","type":"bytes32","indexed":true,"internalType":"bytes32"},{"name":"skillURI","type":"string","indexed":false,"internalType":"string"},{"name":"permissionLevel","type":"uint256","indexed":false,"internalType":"uint256"}],"anonymous":false},{"type":"event","name":"Transfer","inputs":[{"name":"from","type":"address","indexed":true,"internalType":"address"},{"name":"to","type":"address","indexed":true,"internalType":"address"},{"name":"tokenId","type":"uint256","indexed":true,"internalType":"uint256"}],"anonymous":false},{"type":"error","name":"ERC721IncorrectOwner","inputs":[{"name":"sender","type":"address","internalType":"address"},{"name":"tokenId","type":"uint256","internalType":"uint256"},{"name":"owner","type":"address","internalType":"address"}]},{"type":"error","name":"ERC721InsufficientApproval","inputs":[{"name":"operator","type":"address","internalType":"address"},{"name":"tokenId","type":"uint256","internalType":"uint256"}]},{"type":"error","name":"ERC721InvalidApprover","inputs":[{"name":"approver","type":"address","internalType":"address"}]},{"type":"error","name":"ERC721InvalidOperator","inputs":[{"name":"operator","type":"address","internalType":"address"}]},{"type":"error","name":"ERC721InvalidOwner","inputs":[{"name":"owner","type":"address","internalType":"address"}]},{"type":"error","name":"ERC721InvalidReceiver","inputs":[{"name":"receiver","type":"address","internalType":"address"}]},{"type":"error","name":"ERC721InvalidSender","inputs":[{"name":"sender","type":"address","internalType":"address"}]},{"type":"error","name":"ERC721NonexistentToken","inputs":[{"name":"tokenId","type":"uint256","internalType":"uint256"}]},{"type":"error","name":"OwnableInvalidOwner","inputs":[{"name":"owner","type":"address","internalType":"address"}]},{"type":"error","name":"OwnableUnauthorizedAccount","inputs":[{"name":"account","type":"address","internalType":"address"}]}],"bytecode":{"object":"0x608060405234801561000f575f5ffd5b50336040518060400160405280601581526020017f536f7665726569676e20466f726765204167656e7400000000000000000000008152506040518060400160405280600581526020017f464f524745000000000000000000000000000000000000000000000000000000815250815f908161008b919061100a565b50806001908161009b919061100a565b5050505f73ffffffffffffffffffffffffffffffffffffffff168173ffffffffffffffffffffffffffffffffffffffff160361010e575f6040517f1e4fbdf70000000000000000000000000000000000000000000000000000000081526004016101059190611118565b60405180910390fd5b61011d816102ec60201b60201c565b5061012f3360016103af60201b60201c565b6001600c5f6366dc869660e01b7bffffffffffffffffffffffffffffffffffffffffffffffffffffffff19167bffffffffffffffffffffffffffffffffffffffffffffffffffffffff191681526020019081526020015f205f6101000a81548160ff0219169083151502179055506001600c5f6359f3f95260e01b7bffffffffffffffffffffffffffffffffffffffffffffffffffffffff19167bffffffffffffffffffffffffffffffffffffffffffffffffffffffff191681526020019081526020015f205f6101000a81548160ff0219169083151502179055506001600c5f634695074660e01b7bffffffffffffffffffffffffffffffffffffffffffffffffffffffff19167bffffffffffffffffffffffffffffffffffffffffffffffffffffffff191681526020019081526020015f205f6101000a81548160ff0219169083151502179055506001600c5f6351360ce760e01b7bffffffffffffffffffffffffffffffffffffffffffffffffffffffff19167bffffffffffffffffffffffffffffffffffffffffffffffffffffffff191681526020019081526020015f205f6101000a81548160ff0219169083151502179055506112be565b5f60065f9054906101000a900473ffffffffffffffffffffffffffffffffffffffff1690508160065f6101000a81548173ffffffffffffffffffffffffffffffffffffffff021916908373ffffffffffffffffffffffffffffffffffffffff1602179055508173ffffffffffffffffffffffffffffffffffffffff168173ffffffffffffffffffffffffffffffffffffffff167f8be0079c531659141344cd1fd0a4f28419497f9722a3daafe3b4186f6b6457e060405160405180910390a35050565b6103ce828260405180602001604052805f8152506103d260201b60201c565b5050565b6103e2838361040760201b60201c565b6104026103f361050060201b60201c565b5f85858561050760201b60201c565b505050565b5f73ffffffffffffffffffffffffffffffffffffffff168273ffffffffffffffffffffffffffffffffffffffff1603610477575f6040517f64a0ae9200000000000000000000000000000000000000000000000000000000815260040161046e9190611118565b60405180910390fd5b5f61048983835f6106b360201b60201c565b90505f73ffffffffffffffffffffffffffffffffffffffff168173ffffffffffffffffffffffffffffffffffffffff16146104fb575f6040517f73c6ac6e0000000000000000000000000000000000000000000000000000000081526004016104f29190611118565b60405180910390fd5b505050565b5f33905090565b5f8373ffffffffffffffffffffffffffffffffffffffff163b11156106ac578273ffffffffffffffffffffffffffffffffffffffff1663150b7a02868685856040518563ffffffff1660e01b815260040161056594939291906111b0565b6020604051808303815f875af19250505080156105a057506040513d601f19601f8201168201806040525081019061059d9190611253565b60015b610621573d805f81146105ce576040519150601f19603f3d011682016040523d82523d5f602084013e6105d3565b606091505b505f81510361061957836040517f64a0ae920000000000000000000000000000000000000000000000000000000081526004016106109190611118565b60405180910390fd5b805160208201fd5b63150b7a0260e01b7bffffffffffffffffffffffffffffffffffffffffffffffffffffffff1916817bffffffffffffffffffffffffffffffffffffffffffffffffffffffff1916146106aa57836040517f64a0ae920000000000000000000000000000000000000000000000000000000081526004016106a19190611118565b60405180910390fd5b505b5050505050565b5f5f6106c4846108d060201b60201c565b90505f73ffffffffffffffffffffffffffffffffffffffff168373ffffffffffffffffffffffffffffffffffffffff161461070b5761070a81848661090960201b60201c565b5b5f73ffffffffffffffffffffffffffffffffffffffff168173ffffffffffffffffffffffffffffffffffffffff161461079c576107505f855f5f6109d260201b60201c565b600160035f8373ffffffffffffffffffffffffffffffffffffffff1673ffffffffffffffffffffffffffffffffffffffff1681526020019081526020015f205f82825403925050819055505b5f73ffffffffffffffffffffffffffffffffffffffff168573ffffffffffffffffffffffffffffffffffffffff161461081b57600160035f8773ffffffffffffffffffffffffffffffffffffffff1673ffffffffffffffffffffffffffffffffffffffff1681526020019081526020015f205f82825401925050819055505b8460025f8681526020019081526020015f205f6101000a81548173ffffffffffffffffffffffffffffffffffffffff021916908373ffffffffffffffffffffffffffffffffffffffff160217905550838573ffffffffffffffffffffffffffffffffffffffff168273ffffffffffffffffffffffffffffffffffffffff167fddf252ad1be2c89b69c2b068fc378daa952ba7f163c4a11628f55a4df523b3ef60405160405180910390a4809150509392505050565b5f60025f8381526020019081526020015f205f9054906101000a900473ffffffffffffffffffffffffffffffffffffffff169050919050565b61091a838383610b9d60201b60201c565b6109cd575f73ffffffffffffffffffffffffffffffffffffffff168373ffffffffffffffffffffffffffffffffffffffff160361098e57806040517f7e273289000000000000000000000000000000000000000000000000000000008152600401610985919061127e565b60405180910390fd5b81816040517f177e802f0000000000000000000000000000000000000000000000000000000081526004016109c4929190611297565b60405180910390fd5b505050565b8080610a0a57505f73ffffffffffffffffffffffffffffffffffffffff168273ffffffffffffffffffffffffffffffffffffffff1614155b15610b48575f610a1f84610c6960201b60201c565b90505f73ffffffffffffffffffffffffffffffffffffffff168373ffffffffffffffffffffffffffffffffffffffff1614158015610a8957508273ffffffffffffffffffffffffffffffffffffffff168173ffffffffffffffffffffffffffffffffffffffff1614155b8015610aa25750610aa08184610cf560201b60201c565b155b15610ae457826040517fa9fbf51f000000000000000000000000000000000000000000000000000000008152600401610adb9190611118565b60405180910390fd5b8115610b4657838573ffffffffffffffffffffffffffffffffffffffff168273ffffffffffffffffffffffffffffffffffffffff167f8c5be1e5ebec7d5bd14f71427d1e84f3dd0314c0f7b2291e5b200ac8c7c3b92560405160405180910390a45b505b8360045f8581526020019081526020015f205f6101000a81548173ffffffffffffffffffffffffffffffffffffffff021916908373ffffffffffffffffffffffffffffffffffffffff16021790555050505050565b5f5f73ffffffffffffffffffffffffffffffffffffffff168373ffffffffffffffffffffffffffffffffffffffff1614158015610c6057508273ffffffffffffffffffffffffffffffffffffffff168473ffffffffffffffffffffffffffffffffffffffff161480610c1b5750610c1a8484610cf560201b60201c565b5b80610c5f57508273ffffffffffffffffffffffffffffffffffffffff16610c4783610d8360201b60201c565b73ffffffffffffffffffffffffffffffffffffffff16145b5b90509392505050565b5f5f610c7a836108d060201b60201c565b90505f73ffffffffffffffffffffffffffffffffffffffff168173ffffffffffffffffffffffffffffffffffffffff1603610cec57826040517f7e273289000000000000000000000000000000000000000000000000000000008152600401610ce3919061127e565b60405180910390fd5b80915050919050565b5f60055f8473ffffffffffffffffffffffffffffffffffffffff1673ffffffffffffffffffffffffffffffffffffffff1681526020019081526020015f205f8373ffffffffffffffffffffffffffffffffffffffff1673ffffffffffffffffffffffffffffffffffffffff1681526020019081526020015f205f9054906101000a900460ff16905092915050565b5f60045f8381526020019081526020015f205f9054906101000a900473ffffffffffffffffffffffffffffffffffffffff169050919050565b5f81519050919050565b7f4e487b71000000000000000000000000000000000000000000000000000000005f52604160045260245ffd5b7f4e487b71000000000000000000000000000000000000000000000000000000005f52602260045260245ffd5b5f6002820490506001821680610e3757607f821691505b602082108103610e4a57610e49610df3565b5b50919050565b5f819050815f5260205f209050919050565b5f6020601f8301049050919050565b5f82821b905092915050565b5f60088302610eac7fffffffffffffffffffffffffffffffffffffffffffffffffffffffffffffffff82610e71565b610eb68683610e71565b95508019841693508086168417925050509392505050565b5f819050919050565b5f819050919050565b5f610efa610ef5610ef084610ece565b610ed7565b610ece565b9050919050565b5f819050919050565b610f1383610ee0565b610f27610f1f82610f01565b848454610e7d565b825550505050565b5f5f905090565b610f3e610f2f565b610f49818484610f0a565b505050565b5f5b82811015610f6f57610f645f828401610f36565b600181019050610f50565b505050565b601f821115610fc25782821115610fc157610f8e81610e50565b610f9783610e62565b610fa085610e62565b6020861015610fad575f90505b808301610fbc82840382610f4e565b505050505b5b505050565b5f82821c905092915050565b5f610fe25f1984600802610fc7565b1980831691505092915050565b5f610ffa8383610fd3565b9150826002028217905092915050565b61101382610dbc565b67ffffffffffffffff81111561102c5761102b610dc6565b5b6110368254610e20565b611041828285610f74565b5f60209050601f831160018114611072575f8415611060578287015190505b61106a8582610fef565b8655506110d1565b601f19841661108086610e50565b5f5b828110156110a757848901518255600182019150602085019450602081019050611082565b868310156110c457848901516110c0601f891682610fd3565b8355505b6001600288020188555050505b505050505050565b5f73ffffffffffffffffffffffffffffffffffffffff82169050919050565b5f611102826110d9565b9050919050565b611112816110f8565b82525050565b5f60208201905061112b5f830184611109565b92915050565b61113a81610ece565b82525050565b5f81519050919050565b5f82825260208201905092915050565b8281835e5f83830152505050565b5f601f19601f8301169050919050565b5f61118282611140565b61118c818561114a565b935061119c81856020860161115a565b6111a581611168565b840191505092915050565b5f6080820190506111c35f830187611109565b6111d06020830186611109565b6111dd6040830185611131565b81810360608301526111ef8184611178565b905095945050505050565b5f5ffd5b5f7fffffffff0000000000000000000000000000000000000000000000000000000082169050919050565b611232816111fe565b811461123c575f5ffd5b50565b5f8151905061124d81611229565b92915050565b5f60208284031215611268576112676111fa565b5b5f6112758482850161123f565b91505092915050565b5f6020820190506112915f830184611131565b92915050565b5f6040820190506112aa5f830185611109565b6112b76020830184611131565b9392505050565b614711806112cb5f395ff3fe608060405234801561000f575f5ffd5b506004361061025c575f3560e01c80636ebd026511610144578063a579dba7116100c1578063c87b56dd11610085578063c87b56dd14610738578063e899bbf614610768578063e985e9c514610786578063ee3dadbd146107b6578063ee817ea9146107ea578063f2fde38b1461081a5761025c565b8063a579dba714610682578063a9918b4b146106b2578063b88d4fde146106e2578063bf2dd290146106fe578063c3315ac91461071a5761025c565b806385e1f4d01161010857806385e1f4d0146105f05780638da5cb5b1461060e578063914ff57e1461062c57806395d89b4114610648578063a22cb465146106665761025c565b80636ebd02651461054a57806370a0823114610568578063715018a6146105985780637691849f146105a25780637ee7d452146105d25761025c565b806338e36544116101dd5780634f69b635116101a15780634f69b6351461044c57806351360ce71461046857806359f3f952146104985780636352211e146104c957806366dc8696146104f957806369739c471461052c5761025c565b806338e36544146103a657806342842e0e146103c457806346950746146103e05780634b8fd35c146104105780634cdc9c631461042e5761025c565b8063095ea7b311610224578063095ea7b3146103045780631cb4dc9b146103205780631f563d201461035057806323b872dd1461036e57806336a1ff241461038a5761025c565b806301ffc9a71461026057806302b85c07146102905780630420884e146102ac57806306fdde03146102b6578063081812fc146102d4575b5f5ffd5b61027a60048036038101906102759190612e4b565b610836565b6040516102879190612e90565b60405180910390f35b6102aa60048036038101906102a59190612edc565b6108af565b005b6102b461091c565b005b6102be6109f6565b6040516102cb9190612f9c565b60405180910390f35b6102ee60048036038101906102e99190612fef565b610a85565b6040516102fb9190613059565b60405180910390f35b61031e6004803603810190610319919061309c565b610aa0565b005b61033a6004803603810190610335919061313b565b610ab6565b60405161034791906131a7565b60405180910390f35b610358610be8565b60405161036591906131a7565b60405180910390f35b610388600480360381019061038391906131c0565b610bee565b005b6103a4600480360381019061039f9190613210565b610ced565b005b6103ae610e55565b6040516103bb919061325d565b60405180910390f35b6103de60048036038101906103d991906131c0565b610e5b565b005b6103fa60048036038101906103f591906132cb565b610e7a565b6040516104079190613418565b60405180910390f35b610418610fcf565b604051610425919061345a565b60405180910390f35b610436610fe8565b604051610443919061325d565b60405180910390f35b61046660048036038101906104619190613210565b610fee565b005b610482600480360381019061047d91906134a9565b611135565b60405161048f9190612e90565b60405180910390f35b6104b260048036038101906104ad9190613552565b61123d565b6040516104c09291906135b6565b60405180910390f35b6104e360048036038101906104de9190612fef565b611349565b6040516104f09190613059565b60405180910390f35b610513600480360381019061050e91906135dd565b61135a565b60405161052394939291906136b0565b60405180910390f35b610534611475565b6040516105419190612f9c565b60405180910390f35b6105526114ae565b60405161055f919061325d565b60405180910390f35b610582600480360381019061057d91906136f3565b6114b3565b60405161058f919061325d565b60405180910390f35b6105a0611569565b005b6105bc60048036038101906105b79190612e4b565b61157c565b6040516105c99190612e90565b60405180910390f35b6105da611599565b6040516105e79190612e90565b60405180910390f35b6105f86115ab565b604051610605919061325d565b60405180910390f35b6106166115b1565b6040516106239190613059565b60405180910390f35b61064660048036038101906106419190612edc565b6115d9565b005b610650611771565b60405161065d9190612f9c565b60405180910390f35b610680600480360381019061067b9190613748565b611801565b005b61069c600480360381019061069791906137db565b611817565b6040516106a99190612e90565b60405180910390f35b6106cc60048036038101906106c79190613838565b61186e565b6040516106d99190612e90565b60405180910390f35b6106fc60048036038101906106f791906139bd565b611a06565b005b61071860048036038101906107139190613a92565b611a2b565b005b610722611b47565b60405161072f91906131a7565b60405180910390f35b610752600480360381019061074d9190612fef565b611b4d565b60405161075f9190612f9c565b60405180910390f35b610770611bb3565b60405161077d9190612f9c565b60405180910390f35b6107a0600480360381019061079b9190613b03565b611bec565b6040516107ad9190612e90565b60405180910390f35b6107d060048036038101906107cb9190613b41565b611c7a565b6040516107e1959493929190613b6c565b60405180910390f35b61080460048036038101906107ff9190613bc4565b611d3e565b6040516108119190612e90565b60405180910390f35b610834600480360381019061082f91906136f3565b611e14565b005b5f7fca0dcb6d000000000000000000000000000000000000000000000000000000007bffffffffffffffffffffffffffffffffffffffffffffffffffffffff1916827bffffffffffffffffffffffffffffffffffffffffffffffffffffffff191614806108a857506108a782611e98565b5b9050919050565b3073ffffffffffffffffffffffffffffffffffffffff166336a1ff2483836040518363ffffffff1660e01b81526004016108ea929190613c02565b5f604051808303815f87803b158015610901575f5ffd5b505af1158015610913573d5f5f3e3d5ffd5b50505050505050565b610924611f79565b600d5f9054906101000a900460ff1615610973576040517f08c379a000000000000000000000000000000000000000000000000000000000815260040161096a90613c99565b60405180910390fd5b6001600d5f6101000a81548160ff02191690831515021790555043600e819055507f5cd55a078f34fb83a23de0ba24ce31b29c47490aa3f05d1bb677a795288922515f1c5f1b7f48852593d4d7fc0f18caf7b13a953c2b74918047bcdafd97d058811241ee26c5435f5f1b6040516109ec929190613cb7565b60405180910390a2565b60605f8054610a0490613d0b565b80601f0160208091040260200160405190810160405280929190818152602001828054610a3090613d0b565b8015610a7b5780601f10610a5257610100808354040283529160200191610a7b565b820191905f5260205f20905b815481529060010190602001808311610a5e57829003601f168201915b5050505050905090565b5f610a8f82612000565b50610a9982612086565b9050919050565b610ab28282610aad6120bf565b6120c6565b5050565b5f600c5f5f357fffffffff00000000000000000000000000000000000000000000000000000000167bffffffffffffffffffffffffffffffffffffffffffffffffffffffff19167bffffffffffffffffffffffffffffffffffffffffffffffffffffffff191681526020019081526020015f205f9054906101000a900460ff1680610b735750610b446115b1565b73ffffffffffffffffffffffffffffffffffffffff163373ffffffffffffffffffffffffffffffffffffffff16145b610bb2576040517f08c379a0000000000000000000000000000000000000000000000000000000008152600401610ba990613d85565b60405180910390fd5b42848484604051602001610bc99493929190613e11565b6040516020818303038152906040528051906020012090509392505050565b60085481565b5f73ffffffffffffffffffffffffffffffffffffffff168273ffffffffffffffffffffffffffffffffffffffff1603610c5e575f6040517f64a0ae92000000000000000000000000000000000000000000000000000000008152600401610c559190613059565b60405180910390fd5b5f610c718383610c6c6120bf565b6120d8565b90508373ffffffffffffffffffffffffffffffffffffffff168173ffffffffffffffffffffffffffffffffffffffff1614610ce7578382826040517f64283d7b000000000000000000000000000000000000000000000000000000008152600401610cde93929190613e4b565b60405180910390fd5b50505050565b600c5f5f357fffffffff00000000000000000000000000000000000000000000000000000000167bffffffffffffffffffffffffffffffffffffffffffffffffffffffff19167bffffffffffffffffffffffffffffffffffffffffffffffffffffffff191681526020019081526020015f205f9054906101000a900460ff1680610da95750610d7a6115b1565b73ffffffffffffffffffffffffffffffffffffffff163373ffffffffffffffffffffffffffffffffffffffff16145b610de8576040517f08c379a0000000000000000000000000000000000000000000000000000000008152600401610ddf90613d85565b60405180910390fd5b8160088190555042600a5f6101000a81548167ffffffffffffffff021916908367ffffffffffffffff160217905550817f2fa8f1cf066f0221f324b61e13220548943ff3d939fd39b7c9575459feaa3dd48242604051610e49929190613e80565b60405180910390a25050565b60095481565b610e7583838360405180602001604052805f815250611a06565b505050565b6060600c5f5f357fffffffff00000000000000000000000000000000000000000000000000000000167bffffffffffffffffffffffffffffffffffffffffffffffffffffffff19167bffffffffffffffffffffffffffffffffffffffffffffffffffffffff191681526020019081526020015f205f9054906101000a900460ff1680610f385750610f096115b1565b73ffffffffffffffffffffffffffffffffffffffff163373ffffffffffffffffffffffffffffffffffffffff16145b610f77576040517f08c379a0000000000000000000000000000000000000000000000000000000008152600401610f6e90613d85565b60405180910390fd5b8484905067ffffffffffffffff811115610f9457610f93613899565b5b604051908082528060200260200182016040528015610fc25781602001602082028036833780820191505090505b5090509695505050505050565b600a5f9054906101000a900467ffffffffffffffff1681565b600e5481565b600c5f5f357fffffffff00000000000000000000000000000000000000000000000000000000167bffffffffffffffffffffffffffffffffffffffffffffffffffffffff19167bffffffffffffffffffffffffffffffffffffffffffffffffffffffff191681526020019081526020015f205f9054906101000a900460ff16806110aa575061107b6115b1565b73ffffffffffffffffffffffffffffffffffffffff163373ffffffffffffffffffffffffffffffffffffffff16145b6110e9576040517f08c379a00000000000000000000000000000000000000000000000000000000081526004016110e090613d85565b60405180910390fd5b8160078190555043600981905550817f48852593d4d7fc0f18caf7b13a953c2b74918047bcdafd97d058811241ee26c54383604051611129929190613cb7565b60405180910390a25050565b5f600c5f5f357fffffffff00000000000000000000000000000000000000000000000000000000167bffffffffffffffffffffffffffffffffffffffffffffffffffffffff19167bffffffffffffffffffffffffffffffffffffffffffffffffffffffff191681526020019081526020015f205f9054906101000a900460ff16806111f257506111c36115b1565b73ffffffffffffffffffffffffffffffffffffffff163373ffffffffffffffffffffffffffffffffffffffff16145b611231576040517f08c379a000000000000000000000000000000000000000000000000000000000815260040161122890613d85565b60405180910390fd5b60019050949350505050565b5f5f600c5f5f357fffffffff00000000000000000000000000000000000000000000000000000000167bffffffffffffffffffffffffffffffffffffffffffffffffffffffff19167bffffffffffffffffffffffffffffffffffffffffffffffffffffffff191681526020019081526020015f205f9054906101000a900460ff16806112fb57506112cc6115b1565b73ffffffffffffffffffffffffffffffffffffffff163373ffffffffffffffffffffffffffffffffffffffff16145b61133a576040517f08c379a000000000000000000000000000000000000000000000000000000000815260040161133190613d85565b60405180910390fd5b5f5f9150915094509492505050565b5f61135382612000565b9050919050565b5f5f5f5f600c5f5f357fffffffff00000000000000000000000000000000000000000000000000000000167bffffffffffffffffffffffffffffffffffffffffffffffffffffffff19167bffffffffffffffffffffffffffffffffffffffffffffffffffffffff191681526020019081526020015f205f9054906101000a900460ff168061141a57506113eb6115b1565b73ffffffffffffffffffffffffffffffffffffffff163373ffffffffffffffffffffffffffffffffffffffff16145b611459576040517f08c379a000000000000000000000000000000000000000000000000000000000815260040161145090613d85565b60405180910390fd5b5f5f5f5f93509350935093509950995099509995505050505050565b6040518060400160405280600581526020017f464f52474500000000000000000000000000000000000000000000000000000081525081565b600181565b5f5f73ffffffffffffffffffffffffffffffffffffffff168273ffffffffffffffffffffffffffffffffffffffff1603611524575f6040517f89c62b6400000000000000000000000000000000000000000000000000000000815260040161151b9190613059565b60405180910390fd5b60035f8373ffffffffffffffffffffffffffffffffffffffff1673ffffffffffffffffffffffffffffffffffffffff1681526020019081526020015f20549050919050565b611571611f79565b61157a5f6122e3565b565b600c602052805f5260405f205f915054906101000a900460ff1681565b600d5f9054906101000a900460ff1681565b61411581565b5f60065f9054906101000a900473ffffffffffffffffffffffffffffffffffffffff16905090565b3073ffffffffffffffffffffffffffffffffffffffff163373ffffffffffffffffffffffffffffffffffffffff16148061164557506116166115b1565b73ffffffffffffffffffffffffffffffffffffffff163373ffffffffffffffffffffffffffffffffffffffff16145b611684576040517f08c379a000000000000000000000000000000000000000000000000000000000815260040161167b90613f17565b60405180910390fd5b5f5f1b82036116c8576040517f08c379a00000000000000000000000000000000000000000000000000000000081526004016116bf90613f7f565b60405180910390fd5b3073ffffffffffffffffffffffffffffffffffffffff166336a1ff2483836040518363ffffffff1660e01b8152600401611703929190613c02565b5f604051808303815f87803b15801561171a575f5ffd5b505af115801561172c573d5f5f3e3d5ffd5b50505050827fd1aec5abeb96668e15c3cb3df78f6540b3329d03b714f48845b8cc21485b8a8683834260405161176493929190613f9d565b60405180910390a2505050565b60606001805461178090613d0b565b80601f01602080910402602001604051908101604052809291908181526020018280546117ac90613d0b565b80156117f75780601f106117ce576101008083540402835291602001916117f7565b820191905f5260205f20905b8154815290600101906020018083116117da57829003601f168201915b5050505050905090565b61181361180c6120bf565b83836123a6565b5050565b5f6118658383808060200260200160405190810160405280939291908181526020018383602002808284375f81840152601f19601f820116905080830192505050505050506007548661257f565b90509392505050565b5f600c5f857bffffffffffffffffffffffffffffffffffffffffffffffffffffffff19167bffffffffffffffffffffffffffffffffffffffffffffffffffffffff191681526020019081526020015f205f9054906101000a900460ff1661190a576040517f08c379a000000000000000000000000000000000000000000000000000000000815260040161190190614042565b60405180910390fd5b5f3073ffffffffffffffffffffffffffffffffffffffff1685858560405160200161193793929190614080565b60405160208183030381529060405260405161195391906140e3565b5f604051808303815f865af19150503d805f811461198c576040519150601f19603f3d011682016040523d82523d5f602084013e611991565b606091505b505090504284846040516020016119aa939291906140f9565b604051602081830303815290604052805190602001207fb57a703f3b5782dd18061cd74a5a7ff8a87299ef97b65dfb127081ee6d53077f3387846040516119f393929190614131565b60405180910390a2809150509392505050565b611a11848484610bee565b611a25611a1c6120bf565b85858585612595565b50505050565b611a33611f79565b6040518060a0016040528085815260200184848080601f0160208091040260200160405190810160405280939291908181526020018383808284375f81840152601f19601f82011690508083019250505050505050815260200182815260200160011515815260200142815250600b5f8681526020019081526020015f205f820151815f01556020820151816001019081611ace9190614317565b50604082015181600201556060820151816003015f6101000a81548160ff02191690831515021790555060808201518160040155905050837f57e9ff690352dfbd5f3534a1fa8e7207617bfdeba227954c61ccff2281dc47d8848484604051611b3993929190614412565b60405180910390a250505050565b60075481565b6060611b5882612000565b505f611b62612741565b90505f815111611b805760405180602001604052805f815250611bab565b80611b8a84612757565b604051602001611b9b92919061447c565b6040516020818303038152906040525b915050919050565b6040518060400160405280601581526020017f536f7665726569676e20466f726765204167656e74000000000000000000000081525081565b5f60055f8473ffffffffffffffffffffffffffffffffffffffff1673ffffffffffffffffffffffffffffffffffffffff1681526020019081526020015f205f8373ffffffffffffffffffffffffffffffffffffffff1673ffffffffffffffffffffffffffffffffffffffff1681526020019081526020015f205f9054906101000a900460ff16905092915050565b600b602052805f5260405f205f91509050805f015490806001018054611c9f90613d0b565b80601f0160208091040260200160405190810160405280929190818152602001828054611ccb90613d0b565b8015611d165780601f10611ced57610100808354040283529160200191611d16565b820191905f5260205f20905b815481529060010190602001808311611cf957829003601f168201915b505050505090806002015490806003015f9054906101000a900460ff16908060040154905085565b5f3073ffffffffffffffffffffffffffffffffffffffff163373ffffffffffffffffffffffffffffffffffffffff1614611dad576040517f08c379a0000000000000000000000000000000000000000000000000000000008152600401611da4906144e9565b60405180910390fd5b60c8821190508015611e0e575f601983611dc79190614534565b90505f5f9050847f4842c2445a51d41202545768b32058b78eb9906eb9f1c4b777679ea3a5687da985838542604051611e039493929190614573565b60405180910390a250505b92915050565b611e1c611f79565b5f73ffffffffffffffffffffffffffffffffffffffff168173ffffffffffffffffffffffffffffffffffffffff1603611e8c575f6040517f1e4fbdf7000000000000000000000000000000000000000000000000000000008152600401611e839190613059565b60405180910390fd5b611e95816122e3565b50565b5f7f80ac58cd000000000000000000000000000000000000000000000000000000007bffffffffffffffffffffffffffffffffffffffffffffffffffffffff1916827bffffffffffffffffffffffffffffffffffffffffffffffffffffffff19161480611f6257507f5b5e139f000000000000000000000000000000000000000000000000000000007bffffffffffffffffffffffffffffffffffffffffffffffffffffffff1916827bffffffffffffffffffffffffffffffffffffffffffffffffffffffff1916145b80611f725750611f7182612821565b5b9050919050565b611f816120bf565b73ffffffffffffffffffffffffffffffffffffffff16611f9f6115b1565b73ffffffffffffffffffffffffffffffffffffffff1614611ffe57611fc26120bf565b6040517f118cdaa7000000000000000000000000000000000000000000000000000000008152600401611ff59190613059565b60405180910390fd5b565b5f5f61200b8361288a565b90505f73ffffffffffffffffffffffffffffffffffffffff168173ffffffffffffffffffffffffffffffffffffffff160361207d57826040517f7e273289000000000000000000000000000000000000000000000000000000008152600401612074919061325d565b60405180910390fd5b80915050919050565b5f60045f8381526020019081526020015f205f9054906101000a900473ffffffffffffffffffffffffffffffffffffffff169050919050565b5f33905090565b6120d383838360016128c3565b505050565b5f5f6120e38461288a565b90505f73ffffffffffffffffffffffffffffffffffffffff168373ffffffffffffffffffffffffffffffffffffffff161461212457612123818486612a82565b5b5f73ffffffffffffffffffffffffffffffffffffffff168173ffffffffffffffffffffffffffffffffffffffff16146121af576121635f855f5f6128c3565b600160035f8373ffffffffffffffffffffffffffffffffffffffff1673ffffffffffffffffffffffffffffffffffffffff1681526020019081526020015f205f82825403925050819055505b5f73ffffffffffffffffffffffffffffffffffffffff168573ffffffffffffffffffffffffffffffffffffffff161461222e57600160035f8773ffffffffffffffffffffffffffffffffffffffff1673ffffffffffffffffffffffffffffffffffffffff1681526020019081526020015f205f82825401925050819055505b8460025f8681526020019081526020015f205f6101000a81548173ffffffffffffffffffffffffffffffffffffffff021916908373ffffffffffffffffffffffffffffffffffffffff160217905550838573ffffffffffffffffffffffffffffffffffffffff168273ffffffffffffffffffffffffffffffffffffffff167fddf252ad1be2c89b69c2b068fc378daa952ba7f163c4a11628f55a4df523b3ef60405160405180910390a4809150509392505050565b5f60065f9054906101000a900473ffffffffffffffffffffffffffffffffffffffff1690508160065f6101000a81548173ffffffffffffffffffffffffffffffffffffffff021916908373ffffffffffffffffffffffffffffffffffffffff1602179055508173ffffffffffffffffffffffffffffffffffffffff168173ffffffffffffffffffffffffffffffffffffffff167f8be0079c531659141344cd1fd0a4f28419497f9722a3daafe3b4186f6b6457e060405160405180910390a35050565b5f73ffffffffffffffffffffffffffffffffffffffff168373ffffffffffffffffffffffffffffffffffffffff1603612416575f6040517fa9fbf51f00000000000000000000000000000000000000000000000000000000815260040161240d9190613059565b60405180910390fd5b5f73ffffffffffffffffffffffffffffffffffffffff168273ffffffffffffffffffffffffffffffffffffffff160361248657816040517f5b08ba1800000000000000000000000000000000000000000000000000000000815260040161247d9190613059565b60405180910390fd5b8060055f8573ffffffffffffffffffffffffffffffffffffffff1673ffffffffffffffffffffffffffffffffffffffff1681526020019081526020015f205f8473ffffffffffffffffffffffffffffffffffffffff1673ffffffffffffffffffffffffffffffffffffffff1681526020019081526020015f205f6101000a81548160ff0219169083151502179055508173ffffffffffffffffffffffffffffffffffffffff168373ffffffffffffffffffffffffffffffffffffffff167f17307eab39ab6107e8899845ad3d59bd9653f200f220920489ca2b5937696c31836040516125729190612e90565b60405180910390a3505050565b5f8261258b8584612b45565b1490509392505050565b5f8373ffffffffffffffffffffffffffffffffffffffff163b111561273a578273ffffffffffffffffffffffffffffffffffffffff1663150b7a02868685856040518563ffffffff1660e01b81526004016125f394939291906145fe565b6020604051808303815f875af192505050801561262e57506040513d601f19601f8201168201806040525081019061262b919061465c565b60015b6126af573d805f811461265c576040519150601f19603f3d011682016040523d82523d5f602084013e612661565b606091505b505f8151036126a757836040517f64a0ae9200000000000000000000000000000000000000000000000000000000815260040161269e9190613059565b60405180910390fd5b805160208201fd5b63150b7a0260e01b7bffffffffffffffffffffffffffffffffffffffffffffffffffffffff1916817bffffffffffffffffffffffffffffffffffffffffffffffffffffffff19161461273857836040517f64a0ae9200000000000000000000000000000000000000000000000000000000815260040161272f9190613059565b60405180910390fd5b505b5050505050565b606060405180602001604052805f815250905090565b60605f600161276584612b96565b0190505f8167ffffffffffffffff81111561278357612782613899565b5b6040519080825280601f01601f1916602001820160405280156127b55781602001600182028036833780820191505090505b5090505f82602083010190505b600115612816578080600190039150507f3031323334353637383961626364656600000000000000000000000000000000600a86061a8153600a858161280b5761280a614507565b5b0494505f85036127c2575b819350505050919050565b5f7f01ffc9a7000000000000000000000000000000000000000000000000000000007bffffffffffffffffffffffffffffffffffffffffffffffffffffffff1916827bffffffffffffffffffffffffffffffffffffffffffffffffffffffff1916149050919050565b5f60025f8381526020019081526020015f205f9054906101000a900473ffffffffffffffffffffffffffffffffffffffff169050919050565b80806128fb57505f73ffffffffffffffffffffffffffffffffffffffff168273ffffffffffffffffffffffffffffffffffffffff1614155b15612a2d575f61290a84612000565b90505f73ffffffffffffffffffffffffffffffffffffffff168373ffffffffffffffffffffffffffffffffffffffff161415801561297457508273ffffffffffffffffffffffffffffffffffffffff168173ffffffffffffffffffffffffffffffffffffffff1614155b801561298757506129858184611bec565b155b156129c957826040517fa9fbf51f0000000000000000000000000000000000000000000000000000000081526004016129c09190613059565b60405180910390fd5b8115612a2b57838573ffffffffffffffffffffffffffffffffffffffff168273ffffffffffffffffffffffffffffffffffffffff167f8c5be1e5ebec7d5bd14f71427d1e84f3dd0314c0f7b2291e5b200ac8c7c3b92560405160405180910390a45b505b8360045f8581526020019081526020015f205f6101000a81548173ffffffffffffffffffffffffffffffffffffffff021916908373ffffffffffffffffffffffffffffffffffffffff16021790555050505050565b612a8d838383612ce7565b612b40575f73ffffffffffffffffffffffffffffffffffffffff168373ffffffffffffffffffffffffffffffffffffffff1603612b0157806040517f7e273289000000000000000000000000000000000000000000000000000000008152600401612af8919061325d565b60405180910390fd5b81816040517f177e802f000000000000000000000000000000000000000000000000000000008152600401612b37929190614687565b60405180910390fd5b505050565b5f5f8290505f5f90505b8451811015612b8b57612b7c82868381518110612b6f57612b6e6146ae565b5b6020026020010151612da7565b91508080600101915050612b4f565b508091505092915050565b5f5f5f90507a184f03e93ff9f4daa797ed6e38ed64bf6a1f0100000000000000008310612bf2577a184f03e93ff9f4daa797ed6e38ed64bf6a1f0100000000000000008381612be857612be7614507565b5b0492506040810190505b6d04ee2d6d415b85acef81000000008310612c2f576d04ee2d6d415b85acef81000000008381612c2557612c24614507565b5b0492506020810190505b662386f26fc100008310612c5e57662386f26fc100008381612c5457612c53614507565b5b0492506010810190505b6305f5e1008310612c87576305f5e1008381612c7d57612c7c614507565b5b0492506008810190505b6127108310612cac576127108381612ca257612ca1614507565b5b0492506004810190505b60648310612ccf5760648381612cc557612cc4614507565b5b0492506002810190505b600a8310612cde576001810190505b80915050919050565b5f5f73ffffffffffffffffffffffffffffffffffffffff168373ffffffffffffffffffffffffffffffffffffffff1614158015612d9e57508273ffffffffffffffffffffffffffffffffffffffff168473ffffffffffffffffffffffffffffffffffffffff161480612d5f5750612d5e8484611bec565b5b80612d9d57508273ffffffffffffffffffffffffffffffffffffffff16612d8583612086565b73ffffffffffffffffffffffffffffffffffffffff16145b5b90509392505050565b5f818310612dbe57612db98284612dd1565b612dc9565b612dc88383612dd1565b5b905092915050565b5f825f528160205260405f20905092915050565b5f604051905090565b5f5ffd5b5f5ffd5b5f7fffffffff0000000000000000000000000000000000000000000000000000000082169050919050565b612e2a81612df6565b8114612e34575f5ffd5b50565b5f81359050612e4581612e21565b92915050565b5f60208284031215612e6057612e5f612dee565b5b5f612e6d84828501612e37565b91505092915050565b5f8115159050919050565b612e8a81612e76565b82525050565b5f602082019050612ea35f830184612e81565b92915050565b5f819050919050565b612ebb81612ea9565b8114612ec5575f5ffd5b50565b5f81359050612ed681612eb2565b92915050565b5f5f5f60608486031215612ef357612ef2612dee565b5b5f612f0086828701612ec8565b9350506020612f1186828701612ec8565b9250506040612f2286828701612ec8565b9150509250925092565b5f81519050919050565b5f82825260208201905092915050565b8281835e5f83830152505050565b5f601f19601f8301169050919050565b5f612f6e82612f2c565b612f788185612f36565b9350612f88818560208601612f46565b612f9181612f54565b840191505092915050565b5f6020820190508181035f830152612fb48184612f64565b905092915050565b5f819050919050565b612fce81612fbc565b8114612fd8575f5ffd5b50565b5f81359050612fe981612fc5565b92915050565b5f6020828403121561300457613003612dee565b5b5f61301184828501612fdb565b91505092915050565b5f73ffffffffffffffffffffffffffffffffffffffff82169050919050565b5f6130438261301a565b9050919050565b61305381613039565b82525050565b5f60208201905061306c5f83018461304a565b92915050565b61307b81613039565b8114613085575f5ffd5b50565b5f8135905061309681613072565b92915050565b5f5f604083850312156130b2576130b1612dee565b5b5f6130bf85828601613088565b92505060206130d085828601612fdb565b9150509250929050565b5f5ffd5b5f5ffd5b5f5ffd5b5f5f83601f8401126130fb576130fa6130da565b5b8235905067ffffffffffffffff811115613118576131176130de565b5b602083019150836001820283011115613134576131336130e2565b5b9250929050565b5f5f5f6040848603121561315257613151612dee565b5b5f61315f86828701612ec8565b935050602084013567ffffffffffffffff8111156131805761317f612df2565b5b61318c868287016130e6565b92509250509250925092565b6131a181612ea9565b82525050565b5f6020820190506131ba5f830184613198565b92915050565b5f5f5f606084860312156131d7576131d6612dee565b5b5f6131e486828701613088565b93505060206131f586828701613088565b925050604061320686828701612fdb565b9150509250925092565b5f5f6040838503121561322657613225612dee565b5b5f61323385828601612ec8565b925050602061324485828601612ec8565b9150509250929050565b61325781612fbc565b82525050565b5f6020820190506132705f83018461324e565b92915050565b5f5f83601f84011261328b5761328a6130da565b5b8235905067ffffffffffffffff8111156132a8576132a76130de565b5b6020830191508360208202830111156132c4576132c36130e2565b5b9250929050565b5f5f5f5f5f5f60a087890312156132e5576132e4612dee565b5b5f6132f289828a01612fdb565b965050602061330389828a01612fdb565b955050604087013567ffffffffffffffff81111561332457613323612df2565b5b61333089828a01613276565b9450945050606061334389828a01613088565b925050608061335489828a01612fdb565b9150509295509295509295565b5f81519050919050565b5f82825260208201905092915050565b5f819050602082019050919050565b61339381612fbc565b82525050565b5f6133a4838361338a565b60208301905092915050565b5f602082019050919050565b5f6133c682613361565b6133d0818561336b565b93506133db8361337b565b805f5b8381101561340b5781516133f28882613399565b97506133fd836133b0565b9250506001810190506133de565b5085935050505092915050565b5f6020820190508181035f83015261343081846133bc565b905092915050565b5f67ffffffffffffffff82169050919050565b61345481613438565b82525050565b5f60208201905061346d5f83018461344b565b92915050565b5f8160020b9050919050565b61348881613473565b8114613492575f5ffd5b50565b5f813590506134a38161347f565b92915050565b5f5f5f5f608085870312156134c1576134c0612dee565b5b5f6134ce87828801612fdb565b94505060206134df87828801613495565b93505060406134f087828801613495565b925050606061350187828801612fdb565b91505092959194509250565b5f6fffffffffffffffffffffffffffffffff82169050919050565b6135318161350d565b811461353b575f5ffd5b50565b5f8135905061354c81613528565b92915050565b5f5f5f5f6080858703121561356a57613569612dee565b5b5f61357787828801612fdb565b945050602061358887828801613088565b93505060406135998782880161353e565b92505060606135aa8782880161353e565b91505092959194509250565b5f6040820190506135c95f83018561324e565b6135d6602083018461324e565b9392505050565b5f5f5f5f5f5f5f5f5f6101208a8c0312156135fb576135fa612dee565b5b5f6136088c828d01613088565b99505060206136198c828d01613088565b985050604061362a8c828d01613495565b975050606061363b8c828d01613495565b965050608061364c8c828d0161353e565b95505060a061365d8c828d01612fdb565b94505060c061366e8c828d01612fdb565b93505060e061367f8c828d01613088565b9250506101006136918c828d01612fdb565b9150509295985092959850929598565b6136aa8161350d565b82525050565b5f6080820190506136c35f83018761324e565b6136d060208301866136a1565b6136dd604083018561324e565b6136ea606083018461324e565b95945050505050565b5f6020828403121561370857613707612dee565b5b5f61371584828501613088565b91505092915050565b61372781612e76565b8114613731575f5ffd5b50565b5f813590506137428161371e565b92915050565b5f5f6040838503121561375e5761375d612dee565b5b5f61376b85828601613088565b925050602061377c85828601613734565b9150509250929050565b5f5f83601f84011261379b5761379a6130da565b5b8235905067ffffffffffffffff8111156137b8576137b76130de565b5b6020830191508360208202830111156137d4576137d36130e2565b5b9250929050565b5f5f5f604084860312156137f2576137f1612dee565b5b5f6137ff86828701612ec8565b935050602084013567ffffffffffffffff8111156138205761381f612df2565b5b61382c86828701613786565b92509250509250925092565b5f5f5f6040848603121561384f5761384e612dee565b5b5f61385c86828701612e37565b935050602084013567ffffffffffffffff81111561387d5761387c612df2565b5b613889868287016130e6565b92509250509250925092565b5f5ffd5b7f4e487b71000000000000000000000000000000000000000000000000000000005f52604160045260245ffd5b6138cf82612f54565b810181811067ffffffffffffffff821117156138ee576138ed613899565b5b80604052505050565b5f613900612de5565b905061390c82826138c6565b919050565b5f67ffffffffffffffff82111561392b5761392a613899565b5b61393482612f54565b9050602081019050919050565b828183375f83830152505050565b5f61396161395c84613911565b6138f7565b90508281526020810184848401111561397d5761397c613895565b5b613988848285613941565b509392505050565b5f82601f8301126139a4576139a36130da565b5b81356139b484826020860161394f565b91505092915050565b5f5f5f5f608085870312156139d5576139d4612dee565b5b5f6139e287828801613088565b94505060206139f387828801613088565b9350506040613a0487828801612fdb565b925050606085013567ffffffffffffffff811115613a2557613a24612df2565b5b613a3187828801613990565b91505092959194509250565b5f5f83601f840112613a5257613a516130da565b5b8235905067ffffffffffffffff811115613a6f57613a6e6130de565b5b602083019150836001820283011115613a8b57613a8a6130e2565b5b9250929050565b5f5f5f5f60608587031215613aaa57613aa9612dee565b5b5f613ab787828801612ec8565b945050602085013567ffffffffffffffff811115613ad857613ad7612df2565b5b613ae487828801613a3d565b93509350506040613af787828801612fdb565b91505092959194509250565b5f5f60408385031215613b1957613b18612dee565b5b5f613b2685828601613088565b9250506020613b3785828601613088565b9150509250929050565b5f60208284031215613b5657613b55612dee565b5b5f613b6384828501612ec8565b91505092915050565b5f60a082019050613b7f5f830188613198565b8181036020830152613b918187612f64565b9050613ba0604083018661324e565b613bad6060830185612e81565b613bba608083018461324e565b9695505050505050565b5f5f60408385031215613bda57613bd9612dee565b5b5f613be785828601612fdb565b9250506020613bf885828601612fdb565b9150509250929050565b5f604082019050613c155f830185613198565b613c226020830184613198565b9392505050565b7f466f7267654167656e743a2047656e6573697320616c726561647920696e69745f8201527f69616c697a656400000000000000000000000000000000000000000000000000602082015250565b5f613c83602783612f36565b9150613c8e82613c29565b604082019050919050565b5f6020820190508181035f830152613cb081613c77565b9050919050565b5f604082019050613cca5f83018561324e565b613cd76020830184613198565b9392505050565b7f4e487b71000000000000000000000000000000000000000000000000000000005f52602260045260245ffd5b5f6002820490506001821680613d2257607f821691505b602082108103613d3557613d34613cde565b5b50919050565b7f466f7267654167656e743a204e6f7420617574686f72697a65640000000000005f82015250565b5f613d6f601a83612f36565b9150613d7a82613d3b565b602082019050919050565b5f6020820190508181035f830152613d9c81613d63565b9050919050565b5f819050919050565b613dbd613db882612fbc565b613da3565b82525050565b5f819050919050565b613ddd613dd882612ea9565b613dc3565b82525050565b5f81905092915050565b5f613df88385613de3565b9350613e05838584613941565b82840190509392505050565b5f613e1c8287613dac565b602082019150613e2c8286613dcc565b602082019150613e3d828486613ded565b915081905095945050505050565b5f606082019050613e5e5f83018661304a565b613e6b602083018561324e565b613e78604083018461304a565b949350505050565b5f604082019050613e935f830185613198565b613ea0602083018461344b565b9392505050565b7f466f7267654167656e743a204f6e6c792073656c66206f72206f776e6572206d5f8201527f61792063616c6c00000000000000000000000000000000000000000000000000602082015250565b5f613f01602783612f36565b9150613f0c82613ea7565b604082019050919050565b5f6020820190508181035f830152613f2e81613ef5565b9050919050565b7f466f7267654167656e743a20496e76616c696420726573756c7420726f6f74005f82015250565b5f613f69601f83612f36565b9150613f7482613f35565b602082019050919050565b5f6020820190508181035f830152613f9681613f5d565b9050919050565b5f606082019050613fb05f830186613198565b613fbd6020830185613198565b613fca604083018461324e565b949350505050565b7f466f7267654167656e743a2046756e6374696f6e206e6f7420616c6c6f7765645f8201527f20666f72206175746f6e6f6d6f757320657865637574696f6e00000000000000602082015250565b5f61402c603983612f36565b915061403782613fd2565b604082019050919050565b5f6020820190508181035f83015261405981614020565b9050919050565b5f819050919050565b61407a61407582612df6565b614060565b82525050565b5f61408b8286614069565b60048201915061409c828486613ded565b9150819050949350505050565b5f81519050919050565b5f6140bd826140a9565b6140c78185613de3565b93506140d7818560208601612f46565b80840191505092915050565b5f6140ee82846140b3565b915081905092915050565b5f6141048286613dac565b602082019150614115828486613ded565b9150819050949350505050565b61412b81612df6565b82525050565b5f6060820190506141445f83018661304a565b6141516020830185614122565b61415e6040830184612e81565b949350505050565b5f819050815f5260205f209050919050565b5f6020601f8301049050919050565b5f82821b905092915050565b5f600883026141c27fffffffffffffffffffffffffffffffffffffffffffffffffffffffffffffffff82614187565b6141cc8683614187565b95508019841693508086168417925050509392505050565b5f819050919050565b5f6142076142026141fd84612fbc565b6141e4565b612fbc565b9050919050565b5f819050919050565b614220836141ed565b61423461422c8261420e565b848454614193565b825550505050565b5f5f905090565b61424b61423c565b614256818484614217565b505050565b5f5b8281101561427c576142715f828401614243565b60018101905061425d565b505050565b601f8211156142cf57828211156142ce5761429b81614166565b6142a483614178565b6142ad85614178565b60208610156142ba575f90505b8083016142c98284038261425b565b505050505b5b505050565b5f82821c905092915050565b5f6142ef5f19846008026142d4565b1980831691505092915050565b5f61430783836142e0565b9150826002028217905092915050565b61432082612f2c565b67ffffffffffffffff81111561433957614338613899565b5b6143438254613d0b565b61434e828285614281565b5f60209050601f83116001811461437f575f841561436d578287015190505b61437785826142fc565b8655506143de565b601f19841661438d86614166565b5f5b828110156143b45784890151825560018201915060208501945060208101905061438f565b868310156143d157848901516143cd601f8916826142e0565b8355505b6001600288020188555050505b505050505050565b5f6143f18385612f36565b93506143fe838584613941565b61440783612f54565b840190509392505050565b5f6040820190508181035f83015261442b8185876143e6565b905061443a602083018461324e565b949350505050565b5f81905092915050565b5f61445682612f2c565b6144608185614442565b9350614470818560208601612f46565b80840191505092915050565b5f614487828561444c565b9150614493828461444c565b91508190509392505050565b7f466f7267654167656e743a204f6e6c792073656c66206d61792063616c6c00005f82015250565b5f6144d3601e83612f36565b91506144de8261449f565b602082019050919050565b5f6020820190508181035f830152614500816144c7565b9050919050565b7f4e487b71000000000000000000000000000000000000000000000000000000005f52601260045260245ffd5b5f61453e82612fbc565b915061454983612fbc565b92508261455957614558614507565b5b828204905092915050565b61456d81613473565b82525050565b5f6080820190506145865f83018761324e565b6145936020830186614564565b6145a06040830185614564565b6145ad606083018461324e565b95945050505050565b5f82825260208201905092915050565b5f6145d0826140a9565b6145da81856145b6565b93506145ea818560208601612f46565b6145f381612f54565b840191505092915050565b5f6080820190506146115f83018761304a565b61461e602083018661304a565b61462b604083018561324e565b818103606083015261463d81846145c6565b905095945050505050565b5f8151905061465681612e21565b92915050565b5f6020828403121561467157614670612dee565b5b5f61467e84828501614648565b91505092915050565b5f60408201905061469a5f83018561304a565b6146a7602083018461324e565b9392505050565b7f4e487b71000000000000000000000000000000000000000000000000000000005f52603260045260245ffdfea26469706673582212203a121a6315238bb5569256a11652295ff9ad97584de4dd1364b57a4eef12277664736f6c63430008210033","linkReferences":{}},"methodIdentifiers":{"AGENT_NAME()":"e899bbf6","AGENT_SYMBOL()":"69739c47","AGENT_TOKEN_ID()":"6ebd0265","CHAIN_ID()":"85e1f4d0","agentDecideOnRebalance(uint256,uint256)":"ee817ea9","allowedAutonomousFunctions(bytes4)":"7691849f","anchorMemoryRoot(bytes32,bytes32)":"4f69b635","approve(address,uint256)":"095ea7b3","balanceOf(address)":"70a08231","collectFees(uint256,address,uint128,uint128)":"59f3f952","completeInference(bytes32,bytes32,bytes32)":"914ff57e","currentAttestationRoot()":"1f563d20","currentMemoryRoot()":"c3315ac9","executeAutonomousAction(bytes4,bytes)":"a9918b4b","genesisBlock()":"4cdc9c63","genesisInitialized()":"7ee7d452","getApproved(uint256)":"081812fc","initializeGenesis()":"0420884e","isApprovedForAll(address,address)":"e985e9c5","lastAnchoredBlock()":"38e36544","lastAttestationTime()":"4b8fd35c","logAttestationRoot(bytes32,bytes32)":"36a1ff24","mintPosition(address,address,int24,int24,uint128,uint256,uint256,address,uint256)":"66dc8696","name()":"06fdde03","owner()":"8da5cb5b","ownerOf(uint256)":"6352211e","rebalancePosition(uint256,int24,int24,uint256)":"51360ce7","receiveSealedResult(bytes32,bytes32,bytes32)":"02b85c07","registerSkill(bytes32,string,uint256)":"bf2dd290","renounceOwnership()":"715018a6","requestSealedInference(bytes32,bytes)":"1cb4dc9b","safeTransferFrom(address,address,uint256)":"42842e0e","safeTransferFrom(address,address,uint256,bytes)":"b88d4fde","setApprovalForAll(address,bool)":"a22cb465","skills(bytes32)":"ee3dadbd","supportsInterface(bytes4)":"01ffc9a7","swapExactTokensForTokensV3(uint256,uint256,address[],address,uint256)":"46950746","symbol()":"95d89b41","tokenURI(uint256)":"c87b56dd","transferFrom(address,address,uint256)":"23b872dd","transferOwnership(address)":"f2fde38b","verifyAgentState(bytes32,bytes32[])":"a579dba7"},"id":0}